{
  "contractName": "Voting",
  "abi": [
    {
      "inputs": [],
      "stateMutability": "nonpayable",
      "type": "constructor"
    },
    {
      "anonymous": false,
      "inputs": [
        {
          "indexed": true,
          "internalType": "address",
          "name": "previousOwner",
          "type": "address"
        },
        {
          "indexed": true,
          "internalType": "address",
          "name": "newOwner",
          "type": "address"
        }
      ],
      "name": "OwnershipTransferred",
      "type": "event"
    },
    {
      "anonymous": false,
      "inputs": [
        {
          "indexed": false,
          "internalType": "uint256",
          "name": "proposalId",
          "type": "uint256"
        }
      ],
      "name": "ProposalRegistered",
      "type": "event"
    },
    {
      "anonymous": false,
      "inputs": [
        {
          "indexed": false,
          "internalType": "address",
          "name": "voter",
          "type": "address"
        },
        {
          "indexed": false,
          "internalType": "uint256",
          "name": "proposalId",
          "type": "uint256"
        }
      ],
      "name": "Voted",
      "type": "event"
    },
    {
      "anonymous": false,
      "inputs": [
        {
          "indexed": false,
          "internalType": "address",
          "name": "voterAddress",
          "type": "address"
        }
      ],
      "name": "VoterRegistered",
      "type": "event"
    },
    {
      "anonymous": false,
      "inputs": [
        {
          "indexed": false,
          "internalType": "enum Voting.WorkflowStatus",
          "name": "previousStatus",
          "type": "uint8"
        },
        {
          "indexed": false,
          "internalType": "enum Voting.WorkflowStatus",
          "name": "newStatus",
          "type": "uint8"
        }
      ],
      "name": "WorkflowStatusChange",
      "type": "event"
    },
    {
      "inputs": [],
      "name": "owner",
      "outputs": [
        {
          "internalType": "address",
          "name": "",
          "type": "address"
        }
      ],
      "stateMutability": "view",
      "type": "function",
      "constant": true
    },
    {
      "inputs": [],
      "name": "renounceOwnership",
      "outputs": [],
      "stateMutability": "nonpayable",
      "type": "function"
    },
    {
      "inputs": [
        {
          "internalType": "address",
          "name": "newOwner",
          "type": "address"
        }
      ],
      "name": "transferOwnership",
      "outputs": [],
      "stateMutability": "nonpayable",
      "type": "function"
    },
    {
      "inputs": [],
      "name": "winningProposalID",
      "outputs": [
        {
          "internalType": "uint256",
          "name": "",
          "type": "uint256"
        }
      ],
      "stateMutability": "view",
      "type": "function",
      "constant": true
    },
    {
      "inputs": [],
      "name": "workflowStatus",
      "outputs": [
        {
          "internalType": "enum Voting.WorkflowStatus",
          "name": "",
          "type": "uint8"
        }
      ],
      "stateMutability": "view",
      "type": "function",
      "constant": true
    },
    {
      "inputs": [
        {
          "internalType": "address",
          "name": "_addr",
          "type": "address"
        }
      ],
      "name": "getVoter",
      "outputs": [
        {
          "components": [
            {
              "internalType": "bool",
              "name": "isRegistered",
              "type": "bool"
            },
            {
              "internalType": "bool",
              "name": "hasVoted",
              "type": "bool"
            },
            {
              "internalType": "uint256",
              "name": "votedProposalId",
              "type": "uint256"
            }
          ],
          "internalType": "struct Voting.Voter",
          "name": "",
          "type": "tuple"
        }
      ],
      "stateMutability": "view",
      "type": "function",
      "constant": true
    },
    {
      "inputs": [
        {
          "internalType": "uint256",
          "name": "_id",
          "type": "uint256"
        }
      ],
      "name": "getOneProposal",
      "outputs": [
        {
          "components": [
            {
              "internalType": "string",
              "name": "description",
              "type": "string"
            },
            {
              "internalType": "uint256",
              "name": "voteCount",
              "type": "uint256"
            }
          ],
          "internalType": "struct Voting.Proposal",
          "name": "",
          "type": "tuple"
        }
      ],
      "stateMutability": "view",
      "type": "function",
      "constant": true
    },
    {
      "inputs": [],
      "name": "getAllProposals",
      "outputs": [
        {
          "components": [
            {
              "internalType": "string",
              "name": "description",
              "type": "string"
            },
            {
              "internalType": "uint256",
              "name": "voteCount",
              "type": "uint256"
            }
          ],
          "internalType": "struct Voting.Proposal[]",
          "name": "",
          "type": "tuple[]"
        }
      ],
      "stateMutability": "view",
      "type": "function",
      "constant": true
    },
    {
      "inputs": [
        {
          "internalType": "address",
          "name": "_addr",
          "type": "address"
        }
      ],
      "name": "addVoter",
      "outputs": [],
      "stateMutability": "nonpayable",
      "type": "function"
    },
    {
      "inputs": [
        {
          "internalType": "string",
          "name": "_desc",
          "type": "string"
        }
      ],
      "name": "addProposal",
      "outputs": [],
      "stateMutability": "nonpayable",
      "type": "function"
    },
    {
      "inputs": [
        {
          "internalType": "uint256",
          "name": "_id",
          "type": "uint256"
        }
      ],
      "name": "setVote",
      "outputs": [],
      "stateMutability": "nonpayable",
      "type": "function"
    },
    {
      "inputs": [],
      "name": "startProposalsRegistering",
      "outputs": [],
      "stateMutability": "nonpayable",
      "type": "function"
    },
    {
      "inputs": [],
      "name": "endProposalsRegistering",
      "outputs": [],
      "stateMutability": "nonpayable",
      "type": "function"
    },
    {
      "inputs": [],
      "name": "startVotingSession",
      "outputs": [],
      "stateMutability": "nonpayable",
      "type": "function"
    },
    {
      "inputs": [],
      "name": "endVotingSession",
      "outputs": [],
      "stateMutability": "nonpayable",
      "type": "function"
    },
    {
      "inputs": [],
      "name": "tallyVotes",
      "outputs": [],
      "stateMutability": "nonpayable",
      "type": "function"
    }
  ],
  "bytecode": "0x60806040523480156200001157600080fd5b5062000032620000266200004960201b60201c565b6200005160201b60201c565b62000043336200011560201b60201c565b6200059a565b600033905090565b60008060009054906101000a900473ffffffffffffffffffffffffffffffffffffffff169050816000806101000a81548173ffffffffffffffffffffffffffffffffffffffff021916908373ffffffffffffffffffffffffffffffffffffffff1602179055508173ffffffffffffffffffffffffffffffffffffffff168173ffffffffffffffffffffffffffffffffffffffff167f8be0079c531659141344cd1fd0a4f28419497f9722a3daafe3b4186f6b6457e060405160405180910390a35050565b620001256200004960201b60201c565b73ffffffffffffffffffffffffffffffffffffffff166200014b6200035360201b60201c565b73ffffffffffffffffffffffffffffffffffffffff1614620001a4576040517f08c379a00000000000000000000000000000000000000000000000000000000081526004016200019b90620003dd565b60405180910390fd5b60006005811115620001bb57620001ba620003ff565b5b600260009054906101000a900460ff166005811115620001e057620001df620003ff565b5b1462000223576040517f08c379a00000000000000000000000000000000000000000000000000000000081526004016200021a90620004a4565b60405180910390fd5b60011515600460008373ffffffffffffffffffffffffffffffffffffffff1673ffffffffffffffffffffffffffffffffffffffff16815260200190815260200160002060000160009054906101000a900460ff16151503620002bc576040517f08c379a0000000000000000000000000000000000000000000000000000000008152600401620002b39062000516565b60405180910390fd5b6001600460008373ffffffffffffffffffffffffffffffffffffffff1673ffffffffffffffffffffffffffffffffffffffff16815260200190815260200160002060000160006101000a81548160ff0219169083151502179055507fb6be2187d059cc2a55fe29e0e503b566e1e0f8c8780096e185429350acffd3dd816040516200034891906200057d565b60405180910390a150565b60008060009054906101000a900473ffffffffffffffffffffffffffffffffffffffff16905090565b600082825260208201905092915050565b7f4f776e61626c653a2063616c6c6572206973206e6f7420746865206f776e6572600082015250565b6000620003c56020836200037c565b9150620003d2826200038d565b602082019050919050565b60006020820190508181036000830152620003f881620003b6565b9050919050565b7f4e487b7100000000000000000000000000000000000000000000000000000000600052602160045260246000fd5b7f566f7465727320726567697374726174696f6e206973206e6f74206f70656e2060008201527f7965740000000000000000000000000000000000000000000000000000000000602082015250565b60006200048c6023836200037c565b915062000499826200042e565b604082019050919050565b60006020820190508181036000830152620004bf816200047d565b9050919050565b7f416c726561647920726567697374657265640000000000000000000000000000600082015250565b6000620004fe6012836200037c565b91506200050b82620004c6565b602082019050919050565b600060208201905081810360008301526200053181620004ef565b9050919050565b600073ffffffffffffffffffffffffffffffffffffffff82169050919050565b6000620005658262000538565b9050919050565b620005778162000558565b82525050565b60006020820190506200059460008301846200056c565b92915050565b61292080620005aa6000396000f3fe608060405234801561001057600080fd5b50600436106101005760003560e01c8063bdc0143111610097578063d4f50f9811610066578063d4f50f9814610217578063ee74c67814610247578063f2fde38b14610251578063f4ab9adf1461026d57610100565b8063bdc01431146101c7578063c7038a4e146101e5578063c88af42f146101ef578063cceb68f5146101f957610100565b80638da5cb5b116100d35780638da5cb5b14610151578063a1edffa21461016f578063a2788cce1461018d578063a7bfab16146101bd57610100565b8063230796ae146101055780632fdae3c514610121578063378a21781461013d578063715018a614610147575b600080fd5b61011f600480360381019061011a9190611946565b610289565b005b61013b60048036038101906101369190611ab9565b610584565b005b61014561080f565b005b61014f6109f0565b005b610159610a78565b6040516101669190611b43565b60405180910390f35b610177610aa1565b6040516101849190611bd5565b60405180910390f35b6101a760048036038101906101a29190611946565b610ab4565b6040516101b49190611cc4565b60405180910390f35b6101c5610c1b565b005b6101cf610d75565b6040516101dc9190611cf5565b60405180910390f35b6101ed610d7b565b005b6101f7610ed5565b005b61020161102e565b60405161020e9190611e0f565b60405180910390f35b610231600480360381019061022c9190611e5d565b6111b8565b60405161023e9190611ee7565b60405180910390f35b61024f6112e0565b005b61026b60048036038101906102669190611e5d565b61143a565b005b61028760048036038101906102829190611e5d565b611531565b005b600460003373ffffffffffffffffffffffffffffffffffffffff1673ffffffffffffffffffffffffffffffffffffffff16815260200190815260200160002060000160009054906101000a900460ff16610318576040517f08c379a000000000000000000000000000000000000000000000000000000000815260040161030f90611f5f565b60405180910390fd5b6003600581111561032c5761032b611b5e565b5b600260009054906101000a900460ff16600581111561034e5761034d611b5e565b5b1461038e576040517f08c379a000000000000000000000000000000000000000000000000000000000815260040161038590611ff1565b60405180910390fd5b60011515600460003373ffffffffffffffffffffffffffffffffffffffff1673ffffffffffffffffffffffffffffffffffffffff16815260200190815260200160002060000160019054906101000a900460ff16151503610424576040517f08c379a000000000000000000000000000000000000000000000000000000000815260040161041b9061205d565b60405180910390fd5b600380549050811061046b576040517f08c379a0000000000000000000000000000000000000000000000000000000008152600401610462906120c9565b60405180910390fd5b80600460003373ffffffffffffffffffffffffffffffffffffffff1673ffffffffffffffffffffffffffffffffffffffff168152602001908152602001600020600101819055506001600460003373ffffffffffffffffffffffffffffffffffffffff1673ffffffffffffffffffffffffffffffffffffffff16815260200190815260200160002060000160016101000a81548160ff02191690831515021790555060038181548110610521576105206120e9565b5b9060005260206000209060020201600101600081548092919061054390612147565b91905055507f4d99b957a2bc29a30ebd96a7be8e68fe50a3c701db28a91436490b7d53870ca4338260405161057992919061218f565b60405180910390a150565b600460003373ffffffffffffffffffffffffffffffffffffffff1673ffffffffffffffffffffffffffffffffffffffff16815260200190815260200160002060000160009054906101000a900460ff16610613576040517f08c379a000000000000000000000000000000000000000000000000000000000815260040161060a90611f5f565b60405180910390fd5b6001600581111561062757610626611b5e565b5b600260009054906101000a900460ff16600581111561064957610648611b5e565b5b14610689576040517f08c379a000000000000000000000000000000000000000000000000000000000815260040161068090612204565b60405180910390fd5b6040516020016106989061224a565b60405160208183030381529060405280519060200120816040516020016106bf91906122a3565b6040516020818303038152906040528051906020012003610715576040517f08c379a000000000000000000000000000000000000000000000000000000000815260040161070c90612337565b60405180910390fd5b60646003805490501061075d576040517f08c379a0000000000000000000000000000000000000000000000000000000008152600401610754906123c9565b60405180910390fd5b61076561181a565b818160000181905250600381908060018154018082558091505060019003906000526020600020906002020160009091909190915060008201518160000190805190602001906107b6929190611834565b506020820151816001015550507f92e393e9b54e2f801d3ea4beb0c5e71a21cc34a5d34b77d0fb8a3aa1650dc18f60016003805490506107f691906123e9565b6040516108039190611cf5565b60405180910390a15050565b61081761174e565b73ffffffffffffffffffffffffffffffffffffffff16610835610a78565b73ffffffffffffffffffffffffffffffffffffffff161461088b576040517f08c379a000000000000000000000000000000000000000000000000000000000815260040161088290612469565b60405180910390fd5b6004600581111561089f5761089e611b5e565b5b600260009054906101000a900460ff1660058111156108c1576108c0611b5e565b5b14610901576040517f08c379a00000000000000000000000000000000000000000000000000000000081526004016108f8906124fb565b60405180910390fd5b600080600090505b60038054905081101561097f576003828154811061092a576109296120e9565b5b906000526020600020906002020160010154600382815481106109505761094f6120e9565b5b906000526020600020906002020160010154111561096c578091505b808061097790612147565b915050610909565b50806001819055506005600260006101000a81548160ff021916908360058111156109ad576109ac611b5e565b5b02179055507f0a97a4ee45751e2abf3e4fc8946939630b11b371ea8ae39ccdc3056e98f5cc3f600460056040516109e592919061251b565b60405180910390a150565b6109f861174e565b73ffffffffffffffffffffffffffffffffffffffff16610a16610a78565b73ffffffffffffffffffffffffffffffffffffffff1614610a6c576040517f08c379a0000000000000000000000000000000000000000000000000000000008152600401610a6390612469565b60405180910390fd5b610a766000611756565b565b60008060009054906101000a900473ffffffffffffffffffffffffffffffffffffffff16905090565b600260009054906101000a900460ff1681565b610abc61181a565b600460003373ffffffffffffffffffffffffffffffffffffffff1673ffffffffffffffffffffffffffffffffffffffff16815260200190815260200160002060000160009054906101000a900460ff16610b4b576040517f08c379a0000000000000000000000000000000000000000000000000000000008152600401610b4290611f5f565b60405180910390fd5b60038281548110610b5f57610b5e6120e9565b5b9060005260206000209060020201604051806040016040529081600082018054610b8890612573565b80601f0160208091040260200160405190810160405280929190818152602001828054610bb490612573565b8015610c015780601f10610bd657610100808354040283529160200191610c01565b820191906000526020600020905b815481529060010190602001808311610be457829003601f168201915b505050505081526020016001820154815250509050919050565b610c2361174e565b73ffffffffffffffffffffffffffffffffffffffff16610c41610a78565b73ffffffffffffffffffffffffffffffffffffffff1614610c97576040517f08c379a0000000000000000000000000000000000000000000000000000000008152600401610c8e90612469565b60405180910390fd5b60036005811115610cab57610caa611b5e565b5b600260009054906101000a900460ff166005811115610ccd57610ccc611b5e565b5b14610d0d576040517f08c379a0000000000000000000000000000000000000000000000000000000008152600401610d0490611ff1565b60405180910390fd5b6004600260006101000a81548160ff02191690836005811115610d3357610d32611b5e565b5b02179055507f0a97a4ee45751e2abf3e4fc8946939630b11b371ea8ae39ccdc3056e98f5cc3f60036004604051610d6b92919061251b565b60405180910390a1565b60015481565b610d8361174e565b73ffffffffffffffffffffffffffffffffffffffff16610da1610a78565b73ffffffffffffffffffffffffffffffffffffffff1614610df7576040517f08c379a0000000000000000000000000000000000000000000000000000000008152600401610dee90612469565b60405180910390fd5b60006005811115610e0b57610e0a611b5e565b5b600260009054906101000a900460ff166005811115610e2d57610e2c611b5e565b5b14610e6d576040517f08c379a0000000000000000000000000000000000000000000000000000000008152600401610e6490612616565b60405180910390fd5b6001600260006101000a81548160ff02191690836005811115610e9357610e92611b5e565b5b02179055507f0a97a4ee45751e2abf3e4fc8946939630b11b371ea8ae39ccdc3056e98f5cc3f60006001604051610ecb92919061251b565b60405180910390a1565b610edd61174e565b73ffffffffffffffffffffffffffffffffffffffff16610efb610a78565b73ffffffffffffffffffffffffffffffffffffffff1614610f51576040517f08c379a0000000000000000000000000000000000000000000000000000000008152600401610f4890612469565b60405180910390fd5b60016005811115610f6557610f64611b5e565b5b600260009054906101000a900460ff166005811115610f8757610f86611b5e565b5b14610fc7576040517f08c379a0000000000000000000000000000000000000000000000000000000008152600401610fbe906126a8565b60405180910390fd5b60028060006101000a81548160ff02191690836005811115610fec57610feb611b5e565b5b02179055507f0a97a4ee45751e2abf3e4fc8946939630b11b371ea8ae39ccdc3056e98f5cc3f6001600260405161102492919061251b565b60405180910390a1565b6060600460003373ffffffffffffffffffffffffffffffffffffffff1673ffffffffffffffffffffffffffffffffffffffff16815260200190815260200160002060000160009054906101000a900460ff166110bf576040517f08c379a00000000000000000000000000000000000000000000000000000000081526004016110b690611f5f565b60405180910390fd5b6003805480602002602001604051908101604052809291908181526020016000905b828210156111af578382906000526020600020906002020160405180604001604052908160008201805461111490612573565b80601f016020809104026020016040519081016040528092919081815260200182805461114090612573565b801561118d5780601f106111625761010080835404028352916020019161118d565b820191906000526020600020905b81548152906001019060200180831161117057829003601f168201915b50505050508152602001600182015481525050815260200190600101906110e1565b50505050905090565b6111c06118ba565b600460003373ffffffffffffffffffffffffffffffffffffffff1673ffffffffffffffffffffffffffffffffffffffff16815260200190815260200160002060000160009054906101000a900460ff1661124f576040517f08c379a000000000000000000000000000000000000000000000000000000000815260040161124690611f5f565b60405180910390fd5b600460008373ffffffffffffffffffffffffffffffffffffffff1673ffffffffffffffffffffffffffffffffffffffff1681526020019081526020016000206040518060600160405290816000820160009054906101000a900460ff161515151581526020016000820160019054906101000a900460ff161515151581526020016001820154815250509050919050565b6112e861174e565b73ffffffffffffffffffffffffffffffffffffffff16611306610a78565b73ffffffffffffffffffffffffffffffffffffffff161461135c576040517f08c379a000000000000000000000000000000000000000000000000000000000815260040161135390612469565b60405180910390fd5b600260058111156113705761136f611b5e565b5b600260009054906101000a900460ff16600581111561139257611391611b5e565b5b146113d2576040517f08c379a00000000000000000000000000000000000000000000000000000000081526004016113c99061273a565b60405180910390fd5b6003600260006101000a81548160ff021916908360058111156113f8576113f7611b5e565b5b02179055507f0a97a4ee45751e2abf3e4fc8946939630b11b371ea8ae39ccdc3056e98f5cc3f6002600360405161143092919061251b565b60405180910390a1565b61144261174e565b73ffffffffffffffffffffffffffffffffffffffff16611460610a78565b73ffffffffffffffffffffffffffffffffffffffff16146114b6576040517f08c379a00000000000000000000000000000000000000000000000000000000081526004016114ad90612469565b60405180910390fd5b600073ffffffffffffffffffffffffffffffffffffffff168173ffffffffffffffffffffffffffffffffffffffff1603611525576040517f08c379a000000000000000000000000000000000000000000000000000000000815260040161151c906127cc565b60405180910390fd5b61152e81611756565b50565b61153961174e565b73ffffffffffffffffffffffffffffffffffffffff16611557610a78565b73ffffffffffffffffffffffffffffffffffffffff16146115ad576040517f08c379a00000000000000000000000000000000000000000000000000000000081526004016115a490612469565b60405180910390fd5b600060058111156115c1576115c0611b5e565b5b600260009054906101000a900460ff1660058111156115e3576115e2611b5e565b5b14611623576040517f08c379a000000000000000000000000000000000000000000000000000000000815260040161161a9061285e565b60405180910390fd5b60011515600460008373ffffffffffffffffffffffffffffffffffffffff1673ffffffffffffffffffffffffffffffffffffffff16815260200190815260200160002060000160009054906101000a900460ff161515036116b9576040517f08c379a00000000000000000000000000000000000000000000000000000000081526004016116b0906128ca565b60405180910390fd5b6001600460008373ffffffffffffffffffffffffffffffffffffffff1673ffffffffffffffffffffffffffffffffffffffff16815260200190815260200160002060000160006101000a81548160ff0219169083151502179055507fb6be2187d059cc2a55fe29e0e503b566e1e0f8c8780096e185429350acffd3dd816040516117439190611b43565b60405180910390a150565b600033905090565b60008060009054906101000a900473ffffffffffffffffffffffffffffffffffffffff169050816000806101000a81548173ffffffffffffffffffffffffffffffffffffffff021916908373ffffffffffffffffffffffffffffffffffffffff1602179055508173ffffffffffffffffffffffffffffffffffffffff168173ffffffffffffffffffffffffffffffffffffffff167f8be0079c531659141344cd1fd0a4f28419497f9722a3daafe3b4186f6b6457e060405160405180910390a35050565b604051806040016040528060608152602001600081525090565b82805461184090612573565b90600052602060002090601f01602090048101928261186257600085556118a9565b82601f1061187b57805160ff19168380011785556118a9565b828001600101855582156118a9579182015b828111156118a857825182559160200191906001019061188d565b5b5090506118b691906118df565b5090565b6040518060600160405280600015158152602001600015158152602001600081525090565b5b808211156118f85760008160009055506001016118e0565b5090565b6000604051905090565b600080fd5b600080fd5b6000819050919050565b61192381611910565b811461192e57600080fd5b50565b6000813590506119408161191a565b92915050565b60006020828403121561195c5761195b611906565b5b600061196a84828501611931565b91505092915050565b600080fd5b600080fd5b6000601f19601f8301169050919050565b7f4e487b7100000000000000000000000000000000000000000000000000000000600052604160045260246000fd5b6119c68261197d565b810181811067ffffffffffffffff821117156119e5576119e461198e565b5b80604052505050565b60006119f86118fc565b9050611a0482826119bd565b919050565b600067ffffffffffffffff821115611a2457611a2361198e565b5b611a2d8261197d565b9050602081019050919050565b82818337600083830152505050565b6000611a5c611a5784611a09565b6119ee565b905082815260208101848484011115611a7857611a77611978565b5b611a83848285611a3a565b509392505050565b600082601f830112611aa057611a9f611973565b5b8135611ab0848260208601611a49565b91505092915050565b600060208284031215611acf57611ace611906565b5b600082013567ffffffffffffffff811115611aed57611aec61190b565b5b611af984828501611a8b565b91505092915050565b600073ffffffffffffffffffffffffffffffffffffffff82169050919050565b6000611b2d82611b02565b9050919050565b611b3d81611b22565b82525050565b6000602082019050611b586000830184611b34565b92915050565b7f4e487b7100000000000000000000000000000000000000000000000000000000600052602160045260246000fd5b60068110611b9e57611b9d611b5e565b5b50565b6000819050611baf82611b8d565b919050565b6000611bbf82611ba1565b9050919050565b611bcf81611bb4565b82525050565b6000602082019050611bea6000830184611bc6565b92915050565b600081519050919050565b600082825260208201905092915050565b60005b83811015611c2a578082015181840152602081019050611c0f565b83811115611c39576000848401525b50505050565b6000611c4a82611bf0565b611c548185611bfb565b9350611c64818560208601611c0c565b611c6d8161197d565b840191505092915050565b611c8181611910565b82525050565b60006040830160008301518482036000860152611ca48282611c3f565b9150506020830151611cb96020860182611c78565b508091505092915050565b60006020820190508181036000830152611cde8184611c87565b905092915050565b611cef81611910565b82525050565b6000602082019050611d0a6000830184611ce6565b92915050565b600081519050919050565b600082825260208201905092915050565b6000819050602082019050919050565b60006040830160008301518482036000860152611d598282611c3f565b9150506020830151611d6e6020860182611c78565b508091505092915050565b6000611d858383611d3c565b905092915050565b6000602082019050919050565b6000611da582611d10565b611daf8185611d1b565b935083602082028501611dc185611d2c565b8060005b85811015611dfd5784840389528151611dde8582611d79565b9450611de983611d8d565b925060208a01995050600181019050611dc5565b50829750879550505050505092915050565b60006020820190508181036000830152611e298184611d9a565b905092915050565b611e3a81611b22565b8114611e4557600080fd5b50565b600081359050611e5781611e31565b92915050565b600060208284031215611e7357611e72611906565b5b6000611e8184828501611e48565b91505092915050565b60008115159050919050565b611e9f81611e8a565b82525050565b606082016000820151611ebb6000850182611e96565b506020820151611ece6020850182611e96565b506040820151611ee16040850182611c78565b50505050565b6000606082019050611efc6000830184611ea5565b92915050565b600082825260208201905092915050565b7f596f75277265206e6f74206120766f7465720000000000000000000000000000600082015250565b6000611f49601283611f02565b9150611f5482611f13565b602082019050919050565b60006020820190508181036000830152611f7881611f3c565b9050919050565b7f566f74696e672073657373696f6e20686176656e74207374617274656420796560008201527f7400000000000000000000000000000000000000000000000000000000000000602082015250565b6000611fdb602183611f02565b9150611fe682611f7f565b604082019050919050565b6000602082019050818103600083015261200a81611fce565b9050919050565b7f596f75206861766520616c726561647920766f74656400000000000000000000600082015250565b6000612047601683611f02565b915061205282612011565b602082019050919050565b600060208201905081810360008301526120768161203a565b9050919050565b7f50726f706f73616c206e6f7420666f756e640000000000000000000000000000600082015250565b60006120b3601283611f02565b91506120be8261207d565b602082019050919050565b600060208201905081810360008301526120e2816120a6565b9050919050565b7f4e487b7100000000000000000000000000000000000000000000000000000000600052603260045260246000fd5b7f4e487b7100000000000000000000000000000000000000000000000000000000600052601160045260246000fd5b600061215282611910565b91507fffffffffffffffffffffffffffffffffffffffffffffffffffffffffffffffff820361218457612183612118565b5b600182019050919050565b60006040820190506121a46000830185611b34565b6121b16020830184611ce6565b9392505050565b7f50726f706f73616c7320617265206e6f7420616c6c6f77656420796574000000600082015250565b60006121ee601d83611f02565b91506121f9826121b8565b602082019050919050565b6000602082019050818103600083015261221d816121e1565b9050919050565b50565b6000612234600083611f02565b915061223f82612224565b600082019050919050565b6000602082019050818103600083015261226381612227565b9050919050565b600061227582611bf0565b61227f8185611f02565b935061228f818560208601611c0c565b6122988161197d565b840191505092915050565b600060208201905081810360008301526122bd818461226a565b905092915050565b7f43616e6e6f742061636365707420616e20656d7074792070726f706f73616c2060008201527f6465736372697074696f6e000000000000000000000000000000000000000000602082015250565b6000612321602b83611f02565b915061232c826122c5565b604082019050919050565b6000602082019050818103600083015261235081612314565b9050919050565b7f43616e6e6f7420616363657074206d6f7265207468616e203130302070726f7060008201527f6f73616c73000000000000000000000000000000000000000000000000000000602082015250565b60006123b3602583611f02565b91506123be82612357565b604082019050919050565b600060208201905081810360008301526123e2816123a6565b9050919050565b60006123f482611910565b91506123ff83611910565b92508282101561241257612411612118565b5b828203905092915050565b7f4f776e61626c653a2063616c6c6572206973206e6f7420746865206f776e6572600082015250565b6000612453602083611f02565b915061245e8261241d565b602082019050919050565b6000602082019050818103600083015261248281612446565b9050919050565b7f43757272656e7420737461747573206973206e6f7420766f74696e672073657360008201527f73696f6e20656e64656400000000000000000000000000000000000000000000602082015250565b60006124e5602a83611f02565b91506124f082612489565b604082019050919050565b60006020820190508181036000830152612514816124d8565b9050919050565b60006040820190506125306000830185611bc6565b61253d6020830184611bc6565b9392505050565b7f4e487b7100000000000000000000000000000000000000000000000000000000600052602260045260246000fd5b6000600282049050600182168061258b57607f821691505b60208210810361259e5761259d612544565b5b50919050565b7f5265676973746572696e672070726f706f73616c732063616e7420626520737460008201527f6172746564206e6f770000000000000000000000000000000000000000000000602082015250565b6000612600602983611f02565b915061260b826125a4565b604082019050919050565b6000602082019050818103600083015261262f816125f3565b9050919050565b7f5265676973746572696e672070726f706f73616c7320686176656e742073746160008201527f7274656420796574000000000000000000000000000000000000000000000000602082015250565b6000612692602883611f02565b915061269d82612636565b604082019050919050565b600060208201905081810360008301526126c181612685565b9050919050565b7f5265676973746572696e672070726f706f73616c73207068617365206973206e60008201527f6f742066696e6973686564000000000000000000000000000000000000000000602082015250565b6000612724602b83611f02565b915061272f826126c8565b604082019050919050565b6000602082019050818103600083015261275381612717565b9050919050565b7f4f776e61626c653a206e6577206f776e657220697320746865207a65726f206160008201527f6464726573730000000000000000000000000000000000000000000000000000602082015250565b60006127b6602683611f02565b91506127c18261275a565b604082019050919050565b600060208201905081810360008301526127e5816127a9565b9050919050565b7f566f7465727320726567697374726174696f6e206973206e6f74206f70656e2060008201527f7965740000000000000000000000000000000000000000000000000000000000602082015250565b6000612848602383611f02565b9150612853826127ec565b604082019050919050565b600060208201905081810360008301526128778161283b565b9050919050565b7f416c726561647920726567697374657265640000000000000000000000000000600082015250565b60006128b4601283611f02565b91506128bf8261287e565b602082019050919050565b600060208201905081810360008301526128e3816128a7565b905091905056fea26469706673582212207c63fecc3adb2374b7354a5a3c75a6323ad0c70e1fe56170612e45021ff167c864736f6c634300080d0033",
  "immutableReferences": {},
  "source": "// SPDX-License-Identifier: MIT\npragma solidity 0.8.13;\n\nimport \"@openzeppelin/contracts/access/Ownable.sol\";\n\n/// @title Voting contract\n/// @author Grgory Seiller\n/// @notice Voting contract for a small organization\ncontract Voting is Ownable {\n\n    /// @notice Winning proposal Id\n    /// @dev Stores the winning proposal\n    uint public winningProposalID;\n\n    /// @dev Defines a voter\n    struct Voter {\n        bool isRegistered;\n        bool hasVoted;\n        uint votedProposalId;\n    }\n\n    /// @dev Defines a proposal\n    struct Proposal {\n        string description;\n        uint voteCount;\n    }\n\n    /// @dev List of statuses\n    enum  WorkflowStatus {\n        RegisteringVoters,\n        ProposalsRegistrationStarted,\n        ProposalsRegistrationEnded,\n        VotingSessionStarted,\n        VotingSessionEnded,\n        VotesTallied\n    }\n\n    /// @dev Status stage\n    WorkflowStatus public workflowStatus;\n\n    /// @dev Array of proposals\n    Proposal[] proposalsArray;\n\n    /// @dev Whitelist of voters\n    mapping (address => Voter) voters;\n\n    /// @dev Voter registration event\n    /// @param voterAddress Voter's address\n    event VoterRegistered(address voterAddress);\n\n    /// @dev Worflow status change event\n    /// @param previousStatus Previous status\n    /// @param newStatus New status\n    event WorkflowStatusChange(WorkflowStatus previousStatus, WorkflowStatus newStatus);\n\n    /// @dev Proposal registration event\n    /// @param proposalId Proposal Id\n    event ProposalRegistered(uint proposalId);\n\n    /// @dev New vote event\n    /// @param voter Voter's address\n    /// @param proposalId Proposal Id\n    event Voted(address voter, uint proposalId);\n\n    /// @dev Constructor to add owner as a voter\n    constructor() Ownable() {\n        addVoter(msg.sender);\n    }\n\n    /// @dev Modifier to check if current sender is registered as a voter\n    modifier onlyVoters() {\n        require(voters[msg.sender].isRegistered, \"You're not a voter\");\n        _;\n    }\n    \n    /// @notice Get voter's details based on his address\n    /// @dev At any time, whitelisted voters can view a voter based on address\n    /// @param _addr Voter's address\n    /// @return Voter's structure\n    function getVoter(address _addr) external onlyVoters view returns (Voter memory) {\n        return voters[_addr];\n    }\n\n    /// @notice Get a proposal\n    /// @dev At any time, whitelisted voters can view a proposal based on its Id\n    /// @param _id Proposal's Id\n    /// @return Proposal's structure\n    function getOneProposal(uint _id) external onlyVoters view returns (Proposal memory) {\n        return proposalsArray[_id];\n    }\n\n    /// @notice Get all proposals\n    /// @dev At any time, whitelisted voters can view the array of all proposals\n    /// @return Array of proposals\n    function getAllProposals() external onlyVoters view returns (Proposal[] memory) {\n        return proposalsArray;\n    }\n\n    /// @notice Owner can add a new voter\n    /// @dev Owner can add a new voter to the whitelist. Current status must be RegisteringVoters. Emits VoterRegistered\n    /// @param _addr Voter's address\n    function addVoter(address _addr) public onlyOwner {\n        require(workflowStatus == WorkflowStatus.RegisteringVoters, 'Voters registration is not open yet');\n        require(voters[_addr].isRegistered != true, 'Already registered');\n        voters[_addr].isRegistered = true;\n        emit VoterRegistered(_addr);\n    }\n\n    /// @notice Voter can add a new proposal\n    /// @dev Whitelisted voters can add a new proposal. Current status must be ProposalsRegistrationStarted. Emits ProposalRegistered\n    /// @param _desc Proposal description\n    function addProposal(string memory _desc) external onlyVoters {\n        require(workflowStatus == WorkflowStatus.ProposalsRegistrationStarted, 'Proposals are not allowed yet');\n        require(keccak256(abi.encode(_desc)) != keccak256(abi.encode(\"\")), 'Cannot accept an empty proposal description');\n        require(proposalsArray.length < 100, 'Cannot accept more than 100 proposals');\n        Proposal memory proposal;\n        proposal.description = _desc;\n        proposalsArray.push(proposal);\n        emit ProposalRegistered(proposalsArray.length-1);\n    }\n\n    /// @notice Voter can vote for a proposal\n    /// @dev Whitelisted voters can vote for a unique proposal. Current status must be VotingSessionStarted. Emits Voted\n    /// @param _id Proposal Id\n    function setVote( uint _id) external onlyVoters {\n        require(workflowStatus == WorkflowStatus.VotingSessionStarted, 'Voting session havent started yet');\n        require(voters[msg.sender].hasVoted != true, 'You have already voted');\n        require(_id < proposalsArray.length, 'Proposal not found');\n        voters[msg.sender].votedProposalId = _id;\n        voters[msg.sender].hasVoted = true;\n        proposalsArray[_id].voteCount++;\n        emit Voted(msg.sender, _id);\n    }\n\n    /// @notice Owner starts the proposal registration phase\n    /// @dev Owner starts the proposal registration phase. Current status must be RegisteringVoters. Emits WorkflowStatusChange\n    function startProposalsRegistering() external onlyOwner {\n        require(workflowStatus == WorkflowStatus.RegisteringVoters, 'Registering proposals cant be started now');\n        workflowStatus = WorkflowStatus.ProposalsRegistrationStarted;\n        emit WorkflowStatusChange(WorkflowStatus.RegisteringVoters, WorkflowStatus.ProposalsRegistrationStarted);\n    }\n\n    /// @notice Owner ends the proposal registration phase\n    /// @dev Owner ends the proposal registration phase. Current status must be ProposalsRegistrationStarted. Emits WorkflowStatusChange\n    function endProposalsRegistering() external onlyOwner {\n        require(workflowStatus == WorkflowStatus.ProposalsRegistrationStarted, 'Registering proposals havent started yet');\n        workflowStatus = WorkflowStatus.ProposalsRegistrationEnded;\n        emit WorkflowStatusChange(WorkflowStatus.ProposalsRegistrationStarted, WorkflowStatus.ProposalsRegistrationEnded);\n    }\n\n    /// @notice Owner starts the voting phase\n    /// @dev Owner starts the voting phase. Current status must be ProposalsRegistrationEnded. Emits WorkflowStatusChange\n    function startVotingSession() external onlyOwner {\n        require(workflowStatus == WorkflowStatus.ProposalsRegistrationEnded, 'Registering proposals phase is not finished');\n        workflowStatus = WorkflowStatus.VotingSessionStarted;\n        emit WorkflowStatusChange(WorkflowStatus.ProposalsRegistrationEnded, WorkflowStatus.VotingSessionStarted);\n    }\n\n    /// @notice Owner ends the voting phase\n    /// @dev Owner ends the voting phase. Current status must be VotingSessionStarted. Emits WorkflowStatusChange\n    function endVotingSession() external onlyOwner {\n        require(workflowStatus == WorkflowStatus.VotingSessionStarted, 'Voting session havent started yet');\n        workflowStatus = WorkflowStatus.VotingSessionEnded;\n        emit WorkflowStatusChange(WorkflowStatus.VotingSessionStarted, WorkflowStatus.VotingSessionEnded);\n    }\n\n    /// @notice Owner tallies the final votes\n    /// @dev Owner tallies the final votes. Current status must be VotingSessionEnded. Maximum 100 proposals (DoS). Updates winningProposalID. Emits WorkflowStatusChange\n    function tallyVotes() external onlyOwner {\n        require(workflowStatus == WorkflowStatus.VotingSessionEnded, \"Current status is not voting session ended\");\n        uint _winningProposalId;\n        for (uint256 p = 0; p < proposalsArray.length; p++) {\n            if (proposalsArray[p].voteCount > proposalsArray[_winningProposalId].voteCount) {\n                _winningProposalId = p;\n            }\n        }\n        winningProposalID = _winningProposalId;\n        workflowStatus = WorkflowStatus.VotesTallied;\n        emit WorkflowStatusChange(WorkflowStatus.VotingSessionEnded, WorkflowStatus.VotesTallied);\n    }\n}",
  "sourcePath": "/home/greg/Formation/Alyra/Practice/07_dapp/alyra-projet03-dApp/contracts/Voting.sol",
  "compiler": {
    "name": "solc",
    "version": "0.8.13+commit.abaa5c0e.Emscripten.clang"
  },
  "schemaVersion": "3.4.7",
  "updatedAt": "2022-04-22T18:59:35.883Z",
  "networkType": "ethereum",
  "devdoc": {
    "author": "Grgory Seiller",
    "events": {
      "ProposalRegistered(uint256)": {
        "details": "Proposal registration event",
        "params": {
          "proposalId": "Proposal Id"
        }
      },
      "Voted(address,uint256)": {
        "details": "New vote event",
        "params": {
          "proposalId": "Proposal Id",
          "voter": "Voter's address"
        }
      },
      "VoterRegistered(address)": {
        "details": "Voter registration event",
        "params": {
          "voterAddress": "Voter's address"
        }
      },
      "WorkflowStatusChange(uint8,uint8)": {
        "details": "Worflow status change event",
        "params": {
          "newStatus": "New status",
          "previousStatus": "Previous status"
        }
      }
    },
    "kind": "dev",
    "methods": {
      "addProposal(string)": {
        "details": "Whitelisted voters can add a new proposal. Current status must be ProposalsRegistrationStarted. Emits ProposalRegistered",
        "params": {
          "_desc": "Proposal description"
        }
      },
      "addVoter(address)": {
        "details": "Owner can add a new voter to the whitelist. Current status must be RegisteringVoters. Emits VoterRegistered",
        "params": {
          "_addr": "Voter's address"
        }
      },
      "constructor": {
        "details": "Constructor to add owner as a voter"
      },
      "endProposalsRegistering()": {
        "details": "Owner ends the proposal registration phase. Current status must be ProposalsRegistrationStarted. Emits WorkflowStatusChange"
      },
      "endVotingSession()": {
        "details": "Owner ends the voting phase. Current status must be VotingSessionStarted. Emits WorkflowStatusChange"
      },
      "getAllProposals()": {
        "details": "At any time, whitelisted voters can view the array of all proposals",
        "returns": {
          "_0": "Array of proposals"
        }
      },
      "getOneProposal(uint256)": {
        "details": "At any time, whitelisted voters can view a proposal based on its Id",
        "params": {
          "_id": "Proposal's Id"
        },
        "returns": {
          "_0": "Proposal's structure"
        }
      },
      "getVoter(address)": {
        "details": "At any time, whitelisted voters can view a voter based on address",
        "params": {
          "_addr": "Voter's address"
        },
        "returns": {
          "_0": "Voter's structure"
        }
      },
      "owner()": {
        "details": "Returns the address of the current owner."
      },
      "renounceOwnership()": {
        "details": "Leaves the contract without owner. It will not be possible to call `onlyOwner` functions anymore. Can only be called by the current owner. NOTE: Renouncing ownership will leave the contract without an owner, thereby removing any functionality that is only available to the owner."
      },
      "setVote(uint256)": {
        "details": "Whitelisted voters can vote for a unique proposal. Current status must be VotingSessionStarted. Emits Voted",
        "params": {
          "_id": "Proposal Id"
        }
      },
      "startProposalsRegistering()": {
        "details": "Owner starts the proposal registration phase. Current status must be RegisteringVoters. Emits WorkflowStatusChange"
      },
      "startVotingSession()": {
        "details": "Owner starts the voting phase. Current status must be ProposalsRegistrationEnded. Emits WorkflowStatusChange"
      },
      "tallyVotes()": {
        "details": "Owner tallies the final votes. Current status must be VotingSessionEnded. Maximum 100 proposals (DoS). Updates winningProposalID. Emits WorkflowStatusChange"
      },
      "transferOwnership(address)": {
        "details": "Transfers ownership of the contract to a new account (`newOwner`). Can only be called by the current owner."
      }
    },
    "stateVariables": {
      "proposalsArray": {
        "details": "Array of proposals"
      },
      "voters": {
        "details": "Whitelist of voters"
      },
      "winningProposalID": {
        "details": "Stores the winning proposal"
      },
      "workflowStatus": {
        "details": "Status stage"
      }
    },
    "title": "Voting contract",
    "version": 1
  },
  "userdoc": {
    "kind": "user",
    "methods": {
      "addProposal(string)": {
        "notice": "Voter can add a new proposal"
      },
      "addVoter(address)": {
        "notice": "Owner can add a new voter"
      },
      "endProposalsRegistering()": {
        "notice": "Owner ends the proposal registration phase"
      },
      "endVotingSession()": {
        "notice": "Owner ends the voting phase"
      },
      "getAllProposals()": {
        "notice": "Get all proposals"
      },
      "getOneProposal(uint256)": {
        "notice": "Get a proposal"
      },
      "getVoter(address)": {
        "notice": "Get voter's details based on his address"
      },
      "setVote(uint256)": {
        "notice": "Voter can vote for a proposal"
      },
      "startProposalsRegistering()": {
        "notice": "Owner starts the proposal registration phase"
      },
      "startVotingSession()": {
        "notice": "Owner starts the voting phase"
      },
      "tallyVotes()": {
        "notice": "Owner tallies the final votes"
      },
      "winningProposalID()": {
        "notice": "Winning proposal Id"
      }
    },
    "notice": "Voting contract for a small organization",
    "version": 1
  }
}